{
  "contractName": "SmartBet",
  "abi": [
    {
      "constant": true,
      "inputs": [],
      "name": "storedAmount",
      "outputs": [
        {
          "name": "",
          "type": "uint256"
        }
      ],
      "payable": false,
      "stateMutability": "view",
      "type": "function"
    },
    {
      "constant": true,
      "inputs": [],
      "name": "changeDay",
      "outputs": [
        {
          "name": "",
          "type": "int256"
        }
      ],
      "payable": false,
      "stateMutability": "view",
      "type": "function"
    },
    {
      "constant": true,
      "inputs": [
        {
          "name": "",
          "type": "uint256"
        }
      ],
      "name": "bets",
      "outputs": [
        {
          "name": "maker",
          "type": "address"
        },
        {
          "name": "taker",
          "type": "address"
        },
        {
          "name": "amount",
          "type": "uint256"
        }
      ],
      "payable": false,
      "stateMutability": "view",
      "type": "function"
    },
    {
      "constant": false,
      "inputs": [],
      "name": "renounceOwnership",
      "outputs": [],
      "payable": false,
      "stateMutability": "nonpayable",
      "type": "function"
    },
    {
      "constant": true,
      "inputs": [],
      "name": "owner",
      "outputs": [
        {
          "name": "",
          "type": "address"
        }
      ],
      "payable": false,
      "stateMutability": "view",
      "type": "function"
    },
    {
      "constant": true,
      "inputs": [],
      "name": "currentPrice",
      "outputs": [
        {
          "name": "",
          "type": "uint256"
        }
      ],
      "payable": false,
      "stateMutability": "view",
      "type": "function"
    },
    {
      "constant": true,
      "inputs": [
        {
          "name": "",
          "type": "uint256"
        }
      ],
      "name": "betToOwner",
      "outputs": [
        {
          "name": "",
          "type": "address"
        }
      ],
      "payable": false,
      "stateMutability": "view",
      "type": "function"
    },
    {
      "constant": true,
      "inputs": [],
      "name": "lastMarket",
      "outputs": [
        {
          "name": "",
          "type": "bytes32"
        }
      ],
      "payable": false,
      "stateMutability": "view",
      "type": "function"
    },
    {
      "constant": false,
      "inputs": [
        {
          "name": "_newOwner",
          "type": "address"
        }
      ],
      "name": "transferOwnership",
      "outputs": [],
      "payable": false,
      "stateMutability": "nonpayable",
      "type": "function"
    },
    {
      "constant": true,
      "inputs": [],
      "name": "testString",
      "outputs": [
        {
          "name": "",
          "type": "string"
        }
      ],
      "payable": false,
      "stateMutability": "view",
      "type": "function"
    },
    {
      "inputs": [],
      "payable": false,
      "stateMutability": "nonpayable",
      "type": "constructor"
    },
    {
      "anonymous": false,
      "inputs": [
        {
          "indexed": false,
          "name": "id",
          "type": "uint256"
        },
        {
          "indexed": false,
          "name": "createdByAddress",
          "type": "address"
        },
        {
          "indexed": false,
          "name": "amount",
          "type": "uint256"
        }
      ],
      "name": "NewBetCreated",
      "type": "event"
    },
    {
      "anonymous": false,
      "inputs": [
        {
          "indexed": true,
          "name": "requestId",
          "type": "bytes32"
        },
        {
          "indexed": true,
          "name": "price",
          "type": "uint256"
        }
      ],
      "name": "RequestEthereumPriceFulfilled",
      "type": "event"
    },
    {
      "anonymous": false,
      "inputs": [
        {
          "indexed": true,
          "name": "requestId",
          "type": "bytes32"
        },
        {
          "indexed": true,
          "name": "change",
          "type": "int256"
        }
      ],
      "name": "RequestEthereumChangeFulfilled",
      "type": "event"
    },
    {
      "anonymous": false,
      "inputs": [
        {
          "indexed": true,
          "name": "requestId",
          "type": "bytes32"
        },
        {
          "indexed": true,
          "name": "market",
          "type": "bytes32"
        }
      ],
      "name": "RequestEthereumLastMarket",
      "type": "event"
    },
    {
      "anonymous": false,
      "inputs": [
        {
          "indexed": false,
          "name": "oracleAddress",
          "type": "address"
        },
        {
          "indexed": false,
          "name": "jobId",
          "type": "string"
        }
      ],
      "name": "RequestEthereumPrice",
      "type": "event"
    },
    {
      "anonymous": false,
      "inputs": [
        {
          "indexed": true,
          "name": "previousOwner",
          "type": "address"
        }
      ],
      "name": "OwnershipRenounced",
      "type": "event"
    },
    {
      "anonymous": false,
      "inputs": [
        {
          "indexed": true,
          "name": "previousOwner",
          "type": "address"
        },
        {
          "indexed": true,
          "name": "newOwner",
          "type": "address"
        }
      ],
      "name": "OwnershipTransferred",
      "type": "event"
    },
    {
      "anonymous": false,
      "inputs": [
        {
          "indexed": true,
          "name": "id",
          "type": "bytes32"
        }
      ],
      "name": "ChainlinkRequested",
      "type": "event"
    },
    {
      "anonymous": false,
      "inputs": [
        {
          "indexed": true,
          "name": "id",
          "type": "bytes32"
        }
      ],
      "name": "ChainlinkFulfilled",
      "type": "event"
    },
    {
      "anonymous": false,
      "inputs": [
        {
          "indexed": true,
          "name": "id",
          "type": "bytes32"
        }
      ],
      "name": "ChainlinkCancelled",
      "type": "event"
    },
    {
      "constant": false,
      "inputs": [
        {
          "name": "_amount",
          "type": "uint256"
        },
        {
          "name": "_maker",
          "type": "address"
        },
        {
          "name": "_taker",
          "type": "address"
        }
      ],
      "name": "createBet",
      "outputs": [],
      "payable": true,
      "stateMutability": "payable",
      "type": "function"
    },
    {
      "constant": true,
      "inputs": [
        {
          "name": "betId",
          "type": "uint256"
        }
      ],
      "name": "getBetAmount",
      "outputs": [
        {
          "name": "",
          "type": "uint256"
        }
      ],
      "payable": false,
      "stateMutability": "view",
      "type": "function"
    },
    {
      "constant": false,
      "inputs": [
        {
          "name": "_increaseBy",
          "type": "uint256"
        }
      ],
      "name": "increaseStoredAmount",
      "outputs": [
        {
          "name": "sum",
          "type": "uint256"
        }
      ],
      "payable": false,
      "stateMutability": "nonpayable",
      "type": "function"
    },
    {
      "constant": true,
      "inputs": [],
      "name": "getOraclePayment",
      "outputs": [
        {
          "name": "",
          "type": "uint256"
        }
      ],
      "payable": false,
      "stateMutability": "view",
      "type": "function"
    },
    {
      "constant": false,
      "inputs": [
        {
          "name": "_oracle",
          "type": "address"
        },
        {
          "name": "_jobId",
          "type": "string"
        }
      ],
      "name": "requestEthereumPrice",
      "outputs": [],
      "payable": false,
      "stateMutability": "nonpayable",
      "type": "function"
    },
    {
      "constant": false,
      "inputs": [
        {
          "name": "_oracle",
          "type": "address"
        },
        {
          "name": "_jobId",
          "type": "string"
        }
      ],
      "name": "requestEthereumChange",
      "outputs": [],
      "payable": false,
      "stateMutability": "nonpayable",
      "type": "function"
    },
    {
      "constant": false,
      "inputs": [
        {
          "name": "_oracle",
          "type": "address"
        },
        {
          "name": "_jobId",
          "type": "string"
        }
      ],
      "name": "requestEthereumLastMarket",
      "outputs": [],
      "payable": false,
      "stateMutability": "nonpayable",
      "type": "function"
    },
    {
      "constant": false,
      "inputs": [
        {
          "name": "_requestId",
          "type": "bytes32"
        },
        {
          "name": "_price",
          "type": "uint256"
        }
      ],
      "name": "fulfillEthereumPrice",
      "outputs": [],
      "payable": false,
      "stateMutability": "nonpayable",
      "type": "function"
    },
    {
      "constant": false,
      "inputs": [
        {
          "name": "_requestId",
          "type": "bytes32"
        },
        {
          "name": "_change",
          "type": "int256"
        }
      ],
      "name": "fulfillEthereumChange",
      "outputs": [],
      "payable": false,
      "stateMutability": "nonpayable",
      "type": "function"
    },
    {
      "constant": false,
      "inputs": [
        {
          "name": "_requestId",
          "type": "bytes32"
        },
        {
          "name": "_market",
          "type": "bytes32"
        }
      ],
      "name": "fulfillEthereumLastMarket",
      "outputs": [],
      "payable": false,
      "stateMutability": "nonpayable",
      "type": "function"
    },
    {
      "constant": true,
      "inputs": [],
      "name": "getChainlinkToken",
      "outputs": [
        {
          "name": "",
          "type": "address"
        }
      ],
      "payable": false,
      "stateMutability": "view",
      "type": "function"
    },
    {
      "constant": false,
      "inputs": [],
      "name": "withdrawLink",
      "outputs": [],
      "payable": false,
      "stateMutability": "nonpayable",
      "type": "function"
    }
  ],
  "bytecode": "0x608060405260016004556000600a556040805190810160405280600781526020017f54657374696e6700000000000000000000000000000000000000000000000000815250600b90805190602001906200005b92919062000195565b503480156200006957600080fd5b5033600660006101000a81548173ffffffffffffffffffffffffffffffffffffffff021916908373ffffffffffffffffffffffffffffffffffffffff160217905550620000d97320fe562d797a42dcb3399062ae9546cd06f632806200010d640100000000026401000000009004565b6200010773c99b3d447826532722e41bc36e644ba3479e436562000151640100000000026401000000009004565b62000244565b80600260006101000a81548173ffffffffffffffffffffffffffffffffffffffff021916908373ffffffffffffffffffffffffffffffffffffffff16021790555050565b80600360006101000a81548173ffffffffffffffffffffffffffffffffffffffff021916908373ffffffffffffffffffffffffffffffffffffffff16021790555050565b828054600181600116156101000203166002900490600052602060002090601f016020900481019282601f10620001d857805160ff191683800117855562000209565b8280016001018555821562000209579182015b8281111562000208578251825591602001919060010190620001eb565b5b5090506200021891906200021c565b5090565b6200024191905b808211156200023d57600081600090555060010162000223565b5090565b90565b612c3980620002546000396000f300608060405260043610610128576000357c0100000000000000000000000000000000000000000000000000000000900463ffffffff168063165d35e11461012d5780631d7315cc146101845780632183abd1146101af57806322af00fa146101da57806349556aff14610281578063619cba1a146102c05780636986f2e914610349578063715018a6146103745780638c78bf831461038b5780638da5cb5b146103cc5780638dc654a21461042357806392cdaaf31461043a5780639cdb485e146104755780639d1b464a146104d5578063a46fbe1a14610500578063ab643c101461053b578063c4a0055f146105c4578063dd3377c814610605578063e9edbf0314610672578063f2fde38b146106a5578063f3bdf8ba146106e8578063fb8f0f5914610771575b600080fd5b34801561013957600080fd5b50610142610801565b604051808273ffffffffffffffffffffffffffffffffffffffff1673ffffffffffffffffffffffffffffffffffffffff16815260200191505060405180910390f35b34801561019057600080fd5b50610199610810565b6040518082815260200191505060405180910390f35b3480156101bb57600080fd5b506101c4610816565b6040518082815260200191505060405180910390f35b3480156101e657600080fd5b506102056004803603810190808035906020019092919050505061081c565b604051808473ffffffffffffffffffffffffffffffffffffffff1673ffffffffffffffffffffffffffffffffffffffff1681526020018373ffffffffffffffffffffffffffffffffffffffff1673ffffffffffffffffffffffffffffffffffffffff168152602001828152602001935050505060405180910390f35b34801561028d57600080fd5b506102be60048036038101908080356000191690602001909291908035600019169060200190929190505050610895565b005b3480156102cc57600080fd5b50610347600480360381019080803573ffffffffffffffffffffffffffffffffffffffff169060200190929190803590602001908201803590602001908080601f0160208091040260200160405190810160405280939291908181526020018383808284378201915050505050509192919290505050610a4f565b005b34801561035557600080fd5b5061035e610ca0565b6040518082815260200191505060405180910390f35b34801561038057600080fd5b50610389610cb3565b005b34801561039757600080fd5b506103b660048036038101908080359060200190929190505050610db8565b6040518082815260200191505060405180910390f35b3480156103d857600080fd5b506103e1610de2565b604051808273ffffffffffffffffffffffffffffffffffffffff1673ffffffffffffffffffffffffffffffffffffffff16815260200191505060405180910390f35b34801561042f57600080fd5b50610438610e08565b005b34801561044657600080fd5b5061047360048036038101908080356000191690602001909291908035906020019092919050505061109a565b005b6104d360048036038101908080359060200190929190803573ffffffffffffffffffffffffffffffffffffffff169060200190929190803573ffffffffffffffffffffffffffffffffffffffff16906020019092919050505061124c565b005b3480156104e157600080fd5b506104ea61125c565b6040518082815260200191505060405180910390f35b34801561050c57600080fd5b50610539600480360381019080803560001916906020019092919080359060200190929190505050611262565b005b34801561054757600080fd5b506105c2600480360381019080803573ffffffffffffffffffffffffffffffffffffffff169060200190929190803590602001908201803590602001908080601f0160208091040260200160405190810160405280939291908181526020018383808284378201915050505050509192919290505050611414565b005b3480156105d057600080fd5b506105ef6004803603810190808035906020019092919050505061171a565b6040518082815260200191505060405180910390f35b34801561061157600080fd5b5061063060048036038101908080359060200190929190505050611728565b604051808273ffffffffffffffffffffffffffffffffffffffff1673ffffffffffffffffffffffffffffffffffffffff16815260200191505060405180910390f35b34801561067e57600080fd5b5061068761175b565b60405180826000191660001916815260200191505060405180910390f35b3480156106b157600080fd5b506106e6600480360381019080803573ffffffffffffffffffffffffffffffffffffffff169060200190929190505050611761565b005b3480156106f457600080fd5b5061076f600480360381019080803573ffffffffffffffffffffffffffffffffffffffff169060200190929190803590602001908201803590602001908080601f01602080910402602001604051908101604052809392919081815260200183838082843782019150505050505091929192905050506117c9565b005b34801561077d57600080fd5b50610786611b1a565b6040518080602001828103825283818151815260200191508051906020019080838360005b838110156107c65780820151818401526020810190506107ab565b50505050905090810190601f1680156107f35780820380516001836020036101000a031916815260200191505b509250505060405180910390f35b600061080b611bb8565b905090565b600a5481565b600d5481565b60078181548110151561082b57fe5b90600052602060002090600302016000915090508060000160009054906101000a900473ffffffffffffffffffffffffffffffffffffffff16908060010160009054906101000a900473ffffffffffffffffffffffffffffffffffffffff16908060020154905083565b8160056000826000191660001916815260200190815260200160002060009054906101000a900473ffffffffffffffffffffffffffffffffffffffff1673ffffffffffffffffffffffffffffffffffffffff163373ffffffffffffffffffffffffffffffffffffffff1614151561099a576040517f08c379a00000000000000000000000000000000000000000000000000000000081526004018080602001828103825260288152602001807f536f75726365206d75737420626520746865206f7261636c65206f662074686581526020017f207265717565737400000000000000000000000000000000000000000000000081525060400191505060405180910390fd5b60056000826000191660001916815260200190815260200160002060006101000a81549073ffffffffffffffffffffffffffffffffffffffff021916905580600019167f7cc135e0cebb02c3480ae5d74d377283180a2601f8f644edf7987b009316c63a60405160405180910390a2816000191683600019167f1a7783cfc5355cd0706abec2229662cda9cefcfc8aeb31fec8b391ba5eb67cbe60405160405180910390a381600e8160001916905550505050565b610a57612b6b565b600660009054906101000a900473ffffffffffffffffffffffffffffffffffffffff1673ffffffffffffffffffffffffffffffffffffffff163373ffffffffffffffffffffffffffffffffffffffff16141515610ab357600080fd5b610ae9610abf83611be2565b3063a46fbe1a7c010000000000000000000000000000000000000000000000000000000002611c0d565b9050610bb76040805190810160405280600381526020017f75726c0000000000000000000000000000000000000000000000000000000000815250608060405190810160405280604981526020017f68747470733a2f2f6d696e2d6170692e63727970746f636f6d706172652e636f81526020017f6d2f646174612f70726963656d756c746966756c6c3f6673796d733d4554482681526020017f7473796d733d555344000000000000000000000000000000000000000000000081525083611c3e9092919063ffffffff16565b610c366040805190810160405280600481526020017f70617468000000000000000000000000000000000000000000000000000000008152506040805190810160405280601881526020017f5241572e4554482e5553442e4348414e4745504354444159000000000000000081525083611c3e9092919063ffffffff16565b610c846040805190810160405280600581526020017f74696d6573000000000000000000000000000000000000000000000000000000815250633b9aca0083611c719092919063ffffffff16565b610c9a8382670de0b6b3a7640000600102611ca4565b50505050565b6000670de0b6b3a7640000600102905090565b600660009054906101000a900473ffffffffffffffffffffffffffffffffffffffff1673ffffffffffffffffffffffffffffffffffffffff163373ffffffffffffffffffffffffffffffffffffffff16141515610d0f57600080fd5b600660009054906101000a900473ffffffffffffffffffffffffffffffffffffffff1673ffffffffffffffffffffffffffffffffffffffff167ff8df31144d9c2f0f6b59d69b8b98abd5459d07f2742c4df920b25aae33c6482060405160405180910390a26000600660006101000a81548173ffffffffffffffffffffffffffffffffffffffff021916908373ffffffffffffffffffffffffffffffffffffffff160217905550565b6000600782815481101515610dc957fe5b9060005260206000209060030201600201549050919050565b600660009054906101000a900473ffffffffffffffffffffffffffffffffffffffff1681565b6000600660009054906101000a900473ffffffffffffffffffffffffffffffffffffffff1673ffffffffffffffffffffffffffffffffffffffff163373ffffffffffffffffffffffffffffffffffffffff16141515610e6657600080fd5b610e6e611bb8565b90508073ffffffffffffffffffffffffffffffffffffffff1663a9059cbb338373ffffffffffffffffffffffffffffffffffffffff166370a08231306040518263ffffffff167c0100000000000000000000000000000000000000000000000000000000028152600401808273ffffffffffffffffffffffffffffffffffffffff1673ffffffffffffffffffffffffffffffffffffffff168152602001915050602060405180830381600087803b158015610f2857600080fd5b505af1158015610f3c573d6000803e3d6000fd5b505050506040513d6020811015610f5257600080fd5b81019080805190602001909291905050506040518363ffffffff167c0100000000000000000000000000000000000000000000000000000000028152600401808373ffffffffffffffffffffffffffffffffffffffff1673ffffffffffffffffffffffffffffffffffffffff16815260200182815260200192505050602060405180830381600087803b158015610fe857600080fd5b505af1158015610ffc573d6000803e3d6000fd5b505050506040513d602081101561101257600080fd5b81019080805190602001909291905050501515611097576040517f08c379a00000000000000000000000000000000000000000000000000000000081526004018080602001828103825260128152602001807f556e61626c6520746f207472616e73666572000000000000000000000000000081525060200191505060405180910390fd5b50565b8160056000826000191660001916815260200190815260200160002060009054906101000a900473ffffffffffffffffffffffffffffffffffffffff1673ffffffffffffffffffffffffffffffffffffffff163373ffffffffffffffffffffffffffffffffffffffff1614151561119f576040517f08c379a00000000000000000000000000000000000000000000000000000000081526004018080602001828103825260288152602001807f536f75726365206d75737420626520746865206f7261636c65206f662074686581526020017f207265717565737400000000000000000000000000000000000000000000000081525060400191505060405180910390fd5b60056000826000191660001916815260200190815260200160002060006101000a81549073ffffffffffffffffffffffffffffffffffffffff021916905580600019167f7cc135e0cebb02c3480ae5d74d377283180a2601f8f644edf7987b009316c63a60405160405180910390a28183600019167f794eb9e29f6750ede99e05248d997a9ab9fa23c4a7eaff8afa729080eb7c642860405160405180910390a381600c81905550505050565b611257838383612030565b505050565b600c5481565b8160056000826000191660001916815260200190815260200160002060009054906101000a900473ffffffffffffffffffffffffffffffffffffffff1673ffffffffffffffffffffffffffffffffffffffff163373ffffffffffffffffffffffffffffffffffffffff16141515611367576040517f08c379a00000000000000000000000000000000000000000000000000000000081526004018080602001828103825260288152602001807f536f75726365206d75737420626520746865206f7261636c65206f662074686581526020017f207265717565737400000000000000000000000000000000000000000000000081525060400191505060405180910390fd5b60056000826000191660001916815260200190815260200160002060006101000a81549073ffffffffffffffffffffffffffffffffffffffff021916905580600019167f7cc135e0cebb02c3480ae5d74d377283180a2601f8f644edf7987b009316c63a60405160405180910390a28183600019167f36f03c766dbeb725bf2a1e6cf2d934a02bf3cd9644b55767c8f41ef2d4af061260405160405180910390a381600d81905550505050565b61141c612b6b565b600660009054906101000a900473ffffffffffffffffffffffffffffffffffffffff1673ffffffffffffffffffffffffffffffffffffffff163373ffffffffffffffffffffffffffffffffffffffff1614151561147857600080fd5b6114ae61148483611be2565b306392cdaaf37c010000000000000000000000000000000000000000000000000000000002611c0d565b90506115566040805190810160405280600381526020017f75726c0000000000000000000000000000000000000000000000000000000000815250606060405190810160405280603f81526020017f68747470733a2f2f6d696e2d6170692e63727970746f636f6d706172652e636f81526020017f6d2f646174612f70726963653f6673796d3d455448267473796d733d5553440081525083611c3e9092919063ffffffff16565b6115d56040805190810160405280600481526020017f70617468000000000000000000000000000000000000000000000000000000008152506040805190810160405280600381526020017f555344000000000000000000000000000000000000000000000000000000000081525083611c3e9092919063ffffffff16565b6116206040805190810160405280600581526020017f74696d6573000000000000000000000000000000000000000000000000000000815250606483611c719092919063ffffffff16565b61163d61162b612260565b82670de0b6b3a7640000600102611ca4565b507f25fdca6c84ed7f2bf769e9784e7e278b180e80e49abbf43e6ba246204ab76613611667612260565b83604051808373ffffffffffffffffffffffffffffffffffffffff1673ffffffffffffffffffffffffffffffffffffffff16815260200180602001828103825283818151815260200191508051906020019080838360005b838110156116da5780820151818401526020810190506116bf565b50505050905090810190601f1680156117075780820380516001836020036101000a031916815260200191505b50935050505060405180910390a1505050565b600081600a54019050919050565b60086020528060005260406000206000915054906101000a900473ffffffffffffffffffffffffffffffffffffffff1681565b600e5481565b600660009054906101000a900473ffffffffffffffffffffffffffffffffffffffff1673ffffffffffffffffffffffffffffffffffffffff163373ffffffffffffffffffffffffffffffffffffffff161415156117bd57600080fd5b6117c68161228a565b50565b6117d1612b6b565b6060600660009054906101000a900473ffffffffffffffffffffffffffffffffffffffff1673ffffffffffffffffffffffffffffffffffffffff163373ffffffffffffffffffffffffffffffffffffffff1614151561182f57600080fd5b61186561183b84611be2565b306349556aff7c010000000000000000000000000000000000000000000000000000000002611c0d565b91506119336040805190810160405280600381526020017f75726c0000000000000000000000000000000000000000000000000000000000815250608060405190810160405280604981526020017f68747470733a2f2f6d696e2d6170692e63727970746f636f6d706172652e636f81526020017f6d2f646174612f70726963656d756c746966756c6c3f6673796d733d4554482681526020017f7473796d733d555344000000000000000000000000000000000000000000000081525084611c3e9092919063ffffffff16565b600460405190808252806020026020018201604052801561196857816020015b60608152602001906001900390816119535790505b5090506040805190810160405280600381526020017f52415700000000000000000000000000000000000000000000000000000000008152508160008151811015156119b057fe5b906020019060200201819052506040805190810160405280600381526020017f4554480000000000000000000000000000000000000000000000000000000000815250816001815181101515611a0257fe5b906020019060200201819052506040805190810160405280600381526020017f5553440000000000000000000000000000000000000000000000000000000000815250816002815181101515611a5457fe5b906020019060200201819052506040805190810160405280600a81526020017f4c4153544d41524b455400000000000000000000000000000000000000000000815250816003815181101515611aa657fe5b90602001906020020181905250611afd6040805190810160405280600481526020017f706174680000000000000000000000000000000000000000000000000000000081525082846123869092919063ffffffff16565b611b138483670de0b6b3a7640000600102611ca4565b5050505050565b600b8054600181600116156101000203166002900480601f016020809104026020016040519081016040528092919081815260200182805460018160011615610100020316600290048015611bb05780601f10611b8557610100808354040283529160200191611bb0565b820191906000526020600020905b815481529060010190602001808311611b9357829003601f168201915b505050505081565b6000600260009054906101000a900473ffffffffffffffffffffffffffffffffffffffff16905090565b60006060829050600081511415611bff5760006001029150611c07565b602083015191505b50919050565b611c15612b6b565b611c1d612b6b565b611c3485858584612408909392919063ffffffff16565b9150509392505050565b611c558284608001516124c290919063ffffffff16565b611c6c8184608001516124c290919063ffffffff16565b505050565b611c888284608001516124c290919063ffffffff16565b611c9f8184608001516124e790919063ffffffff16565b505050565b600030600454604051602001808373ffffffffffffffffffffffffffffffffffffffff1673ffffffffffffffffffffffffffffffffffffffff166c01000000000000000000000000028152601401828152602001925050506040516020818303038152906040526040518082805190602001908083835b602083101515611d405780518252602082019150602081019050602083039250611d1b565b6001836020036101000a038019825116818451168082178552505050505050905001915050604051809103902090506004548360600181815250508360056000836000191660001916815260200190815260200160002060006101000a81548173ffffffffffffffffffffffffffffffffffffffff021916908373ffffffffffffffffffffffffffffffffffffffff16021790555080600019167fb5e6e01e79f91267dc17b4e6314d5d4d03593d2ceee0fbb452b750bd70ea5af960405160405180910390a2600260009054906101000a900473ffffffffffffffffffffffffffffffffffffffff1673ffffffffffffffffffffffffffffffffffffffff16634000aea08584611e4f87612535565b6040518463ffffffff167c0100000000000000000000000000000000000000000000000000000000028152600401808473ffffffffffffffffffffffffffffffffffffffff1673ffffffffffffffffffffffffffffffffffffffff16815260200183815260200180602001828103825283818151815260200191508051906020019080838360005b83811015611ef2578082015181840152602081019050611ed7565b50505050905090810190601f168015611f1f5780820380516001836020036101000a031916815260200191505b50945050505050602060405180830381600087803b158015611f4057600080fd5b505af1158015611f54573d6000803e3d6000fd5b505050506040513d6020811015611f6a57600080fd5b81019080805190602001909291905050501515612015576040517f08c379a00000000000000000000000000000000000000000000000000000000081526004018080602001828103825260238152602001807f756e61626c6520746f207472616e73666572416e6443616c6c20746f206f726181526020017f636c65000000000000000000000000000000000000000000000000000000000081525060400191505060405180910390fd5b60016004600082825401925050819055508090509392505050565b6000600160076060604051908101604052808673ffffffffffffffffffffffffffffffffffffffff1681526020018573ffffffffffffffffffffffffffffffffffffffff168152602001878152509080600181540180825580915050906001820390600052602060002090600302016000909192909190915060008201518160000160006101000a81548173ffffffffffffffffffffffffffffffffffffffff021916908373ffffffffffffffffffffffffffffffffffffffff16021790555060208201518160010160006101000a81548173ffffffffffffffffffffffffffffffffffffffff021916908373ffffffffffffffffffffffffffffffffffffffff160217905550604082015181600201555050039050336008600083815260200190815260200160002060006101000a81548173ffffffffffffffffffffffffffffffffffffffff021916908373ffffffffffffffffffffffffffffffffffffffff160217905550600960003373ffffffffffffffffffffffffffffffffffffffff1673ffffffffffffffffffffffffffffffffffffffff168152602001908152602001600020600081548092919060010191905055507f3fb1a85df2b5a0c2fde720a002780391bbb3ef3b64e882a9020001a88d1ffa89813386604051808481526020018373ffffffffffffffffffffffffffffffffffffffff1673ffffffffffffffffffffffffffffffffffffffff168152602001828152602001935050505060405180910390a150505050565b6000600360009054906101000a900473ffffffffffffffffffffffffffffffffffffffff16905090565b600073ffffffffffffffffffffffffffffffffffffffff168173ffffffffffffffffffffffffffffffffffffffff16141515156122c657600080fd5b8073ffffffffffffffffffffffffffffffffffffffff16600660009054906101000a900473ffffffffffffffffffffffffffffffffffffffff1673ffffffffffffffffffffffffffffffffffffffff167f8be0079c531659141344cd1fd0a4f28419497f9722a3daafe3b4186f6b6457e060405160405180910390a380600660006101000a81548173ffffffffffffffffffffffffffffffffffffffff021916908373ffffffffffffffffffffffffffffffffffffffff16021790555050565b600061239f8385608001516124c290919063ffffffff16565b6123ac8460800151612760565b600090505b81518110156123f5576123e882828151811015156123cb57fe5b9060200190602002015185608001516124c290919063ffffffff16565b80806001019150506123b1565b612402846080015161276e565b50505050565b612410612b6b565b612420856080015161010061277c565b50838560000190600019169081600019168152505082856020019073ffffffffffffffffffffffffffffffffffffffff16908173ffffffffffffffffffffffffffffffffffffffff16815250508185604001907bffffffffffffffffffffffffffffffffffffffffffffffffffffffff191690817bffffffffffffffffffffffffffffffffffffffffffffffffffffffff191681525050849050949350505050565b6124cf82600383516127d6565b6124e2818361293490919063ffffffff16565b505050565b600081121515612502576124fd826000836127d6565b612531565b612530826001837fffffffffffffffffffffffffffffffffffffffffffffffffffffffffffffffff036127d6565b5b5050565b6060600360009054906101000a900473ffffffffffffffffffffffffffffffffffffffff1673ffffffffffffffffffffffffffffffffffffffff16634042994690507c01000000000000000000000000000000000000000000000000000000000260008084600001518560200151866040015187606001516001896080015160000151604051602401808973ffffffffffffffffffffffffffffffffffffffff1673ffffffffffffffffffffffffffffffffffffffff16815260200188815260200187600019166000191681526020018673ffffffffffffffffffffffffffffffffffffffff1673ffffffffffffffffffffffffffffffffffffffff168152602001857bffffffffffffffffffffffffffffffffffffffffffffffffffffffff19167bffffffffffffffffffffffffffffffffffffffffffffffffffffffff1916815260200184815260200183815260200180602001828103825283818151815260200191508051906020019080838360005b838110156126c35780820151818401526020810190506126a8565b50505050905090810190601f1680156126f05780820380516001836020036101000a031916815260200191505b509950505050505050505050604051602081830303815290604052907bffffffffffffffffffffffffffffffffffffffffffffffffffffffff19166020820180517bffffffffffffffffffffffffffffffffffffffffffffffffffffffff83818316178352505050509050919050565b61276b816004612956565b50565b612779816007612956565b50565b612784612bd9565b600060208381151561279257fe5b061415156127af576020828115156127a657fe5b06602003820191505b81836020018181525050604051808452600081528281016020016040525082905092915050565b601781111515612808576128028160058460ff169060020a0260ff16178461297b90919063ffffffff16565b5061292f565b60ff8111151561284f57612832601860058460ff169060020a02178461297b90919063ffffffff16565b506128498160018561299b9092919063ffffffff16565b5061292e565b61ffff811115156128975761287a601960058460ff169060020a02178461297b90919063ffffffff16565b506128918160028561299b9092919063ffffffff16565b5061292d565b63ffffffff811115156128e1576128c4601a60058460ff169060020a02178461297b90919063ffffffff16565b506128db8160048561299b9092919063ffffffff16565b5061292c565b67ffffffffffffffff8111151561292b57612912601b60058460ff169060020a02178461297b90919063ffffffff16565b506129298160088561299b9092919063ffffffff16565b505b5b5b5b5b505050565b61293c612bd9565b61294e838460000151518485516129bd565b905092915050565b612976601f60058360ff169060020a02178361297b90919063ffffffff16565b505050565b612983612bd9565b6129938384600001515184612a7a565b905092915050565b6129a3612bd9565b6129b4848560000151518585612aca565b90509392505050565b6129c5612bd9565b6000806000855185111515156129da57600080fd5b87602001518588011115612a0557612a048860026129fe8b602001518b8a01612b2b565b02612b47565b5b875180518860208301019450808988011115612a215788870182525b60208801935050505b602085101515612a4f5781518352602083019250602082019150602085039450612a2a565b6001856020036101000a03905080198251168184511681811785525050879350505050949350505050565b612a82612bd9565b836020015183101515612aa157612aa0846002866020015102612b47565b5b8351805160208583010184815381861415612abd576001820183525b5050508390509392505050565b612ad2612bd9565b600085602001518584011115612af257612af186600287860102612b47565b5b6001836101000a0390508551838682010185831982511617815281518588011115612b1d5784870182525b505085915050949350505050565b600081831115612b3d57829050612b41565b8190505b92915050565b606082600001519050612b5a838361277c565b50612b658382612934565b50505050565b60c06040519081016040528060008019168152602001600073ffffffffffffffffffffffffffffffffffffffff16815260200160007bffffffffffffffffffffffffffffffffffffffffffffffffffffffff1916815260200160008152602001612bd3612bf3565b81525090565b604080519081016040528060608152602001600081525090565b6040805190810160405280606081526020016000815250905600a165627a7a72305820650f86af4f1cd30d859baca65ae1ede850f6a904a28f1e4d79ae0597347cc34f0029",
  "source": "pragma solidity ^0.4.24;\n\nimport \"chainlink/contracts/Chainlinked.sol\";\nimport \"openzeppelin-solidity/contracts/ownership/Ownable.sol\";\n\ncontract SmartBet is Chainlinked, Ownable {\n\n    struct Bet {\n        // address[] participants;\n        address maker;\n        address taker;\n        uint amount;\n    }\n\n    Bet[] public bets;\n\n    mapping(uint => address) public betToOwner;\n    mapping(address => uint) ownerBetCount;\n\n    // new Bet created Event\n    event NewBetCreated(uint id, address createdByAddress, uint amount);\n\n    // internal create bet function. Handles very basic creation\n    function _createBet(uint _amount, address _maker, address _taker) internal {\n        uint id = bets.push(Bet(_maker, _taker, _amount)) - 1;\n        betToOwner[id] = msg.sender;\n        ownerBetCount[msg.sender]++;\n\n        emit NewBetCreated(id, msg.sender, _amount);\n    }\n\n    // Public create method that does any validation checks before calling the internal create\n    function createBet(uint _amount, address _maker, address _taker) public payable {\n        _createBet(_amount, _maker, _taker);\n    }\n\n    function getBetAmount(uint betId) public view returns (uint) {\n        return bets[betId].amount;\n    }\n\n    uint public storedAmount = 0;\n\n    function increaseStoredAmount(uint _increaseBy)\n      public\n      returns (uint sum)\n    {\n      sum = storedAmount + _increaseBy;\n    }\n\n    // since variable is public, solidity should create a getter\n    string public testString = \"Testing\";\n\n    uint256 constant private ORACLE_PAYMENT = 1 * LINK; // solium-disable-line zeppelin/no-arithmetic-operations\n\n    function getOraclePayment() public view returns (uint256){\n        return ORACLE_PAYMENT;\n    }\n\n  // two spaced code is taken from Consumer Example\n  uint256 public currentPrice;\n  int256 public changeDay;\n  bytes32 public lastMarket;\n\n  event RequestEthereumPriceFulfilled(\n    bytes32 indexed requestId,\n    uint256 indexed price\n  );\n\n  event RequestEthereumChangeFulfilled(\n    bytes32 indexed requestId,\n    int256 indexed change\n  );\n\n  event RequestEthereumLastMarket(\n    bytes32 indexed requestId,\n    bytes32 indexed market\n  );\n\n  event RequestEthereumPrice(\n    address oracleAddress,\n    string jobId\n  );\n\n    // @info gotten from here: https://docs.chain.link/docs/create-a-chainlinked-project\n  constructor() Ownable() public {\n    // setPublicChainlinkToken();\n    //   ROPSTEN\n    // Set the address for the LINK token for the network.\n    setChainlinkToken(0x20fE562d797A42Dcb3399062AE9546cd06f63280);\n    // Set the address of the oracle to create requests to.\n    setChainlinkOracle(0xc99B3D447826532722E41bc36e644ba3479E4365);\n  }\n\n  function requestEthereumPrice(address _oracle, string _jobId)\n    public\n    onlyOwner\n  {    \n    Chainlink.Request memory req = buildChainlinkRequest(stringToBytes32(_jobId), this, this.fulfillEthereumPrice.selector);\n    req.add(\"url\", \"https://min-api.cryptocompare.com/data/price?fsym=ETH&tsyms=USD\");\n    req.add(\"path\", \"USD\");\n    req.addInt(\"times\", 100);\n    sendChainlinkRequestTo(chainlinkOracleAddress(), req, ORACLE_PAYMENT);\n    emit RequestEthereumPrice(chainlinkOracleAddress(), _jobId);\n  }\n\n  function requestEthereumChange(address _oracle, string _jobId)\n    public\n    onlyOwner\n  {\n    Chainlink.Request memory req = buildChainlinkRequest(stringToBytes32(_jobId), this, this.fulfillEthereumChange.selector);\n    req.add(\"url\", \"https://min-api.cryptocompare.com/data/pricemultifull?fsyms=ETH&tsyms=USD\");\n    req.add(\"path\", \"RAW.ETH.USD.CHANGEPCTDAY\");\n    req.addInt(\"times\", 1000000000);\n    sendChainlinkRequestTo(_oracle, req, ORACLE_PAYMENT);\n  }\n\n  function requestEthereumLastMarket(address _oracle, string _jobId)\n    public\n    onlyOwner\n  {\n    Chainlink.Request memory req = buildChainlinkRequest(stringToBytes32(_jobId), this, this.fulfillEthereumLastMarket.selector);\n    req.add(\"url\", \"https://min-api.cryptocompare.com/data/pricemultifull?fsyms=ETH&tsyms=USD\");\n    string[] memory path = new string[](4);\n    path[0] = \"RAW\";\n    path[1] = \"ETH\";\n    path[2] = \"USD\";\n    path[3] = \"LASTMARKET\";\n    req.addStringArray(\"path\", path);\n    sendChainlinkRequestTo(_oracle, req, ORACLE_PAYMENT);\n  }\n\n  function fulfillEthereumPrice(bytes32 _requestId, uint256 _price)\n    public\n    recordChainlinkFulfillment(_requestId)\n  {\n    emit RequestEthereumPriceFulfilled(_requestId, _price);\n    currentPrice = _price;\n  }\n\n  function fulfillEthereumChange(bytes32 _requestId, int256 _change)\n    public\n    recordChainlinkFulfillment(_requestId)\n  {\n    emit RequestEthereumChangeFulfilled(_requestId, _change);\n    changeDay = _change;\n  }\n\n  function fulfillEthereumLastMarket(bytes32 _requestId, bytes32 _market)\n    public\n    recordChainlinkFulfillment(_requestId)\n  {\n    emit RequestEthereumLastMarket(_requestId, _market);\n    lastMarket = _market;\n  }\n\n  function getChainlinkToken() public view returns (address) {\n    return chainlinkTokenAddress();\n  }\n\n  function withdrawLink() public onlyOwner {\n    LinkTokenInterface link = LinkTokenInterface(chainlinkTokenAddress());\n    require(link.transfer(msg.sender, link.balanceOf(address(this))), \"Unable to transfer\");\n  }\n\n  function stringToBytes32(string memory source) private pure returns (bytes32 result) {\n    bytes memory tempEmptyStringTest = bytes(source);\n    if (tempEmptyStringTest.length == 0) {\n      return 0x0;\n    }\n\n    assembly {\n      result := mload(add(source, 32))\n    }\n  }\n\n}\n\n\n// contract SmartBet {\n//    struct Bet {\n//        address[] participants;\n//        uint amount;\n//    }\n\n//    Bet[] public bets;\n//    mapping (uint => address) public betToOwner;\n\n//    function createBet() public payable {\n//        address[] memory adr = new address[](1);\n//        adr[0] = msg.sender;\n//        Bet memory newBet = Bet(adr, msg.value);\n//        uint id = bets.push(newBet);\n//        betToOwner[id] = msg.sender;\n//    }\n\n//    function enterBet(uint _betId) public payable {\n//        uint msgValue = msg.value;\n//        uint amountRequired = bets[_betId].amount;\n//        require(msgValue == amountRequired);\n\n//        bets[_betId].participants.push(msg.sender);\n//    }\n\n//    function payoutBet(uint _betId) public payable {\n//        uint participantCount = bets[_betId].participants.length;\n//        require(participantCount > 1);\n\n//        address winningAddress = bets[_betId].participants[0];\n//        winningAddress.transfer(address(this).balance);\n//    }\n\n// }",
  "sourcePath": "/Users/kpannell/Documents/Projects/KCBets/gambit/contracts/SmartBet.sol",
  "compiler": {
    "name": "solc",
    "version": "0.4.24+commit.e67f0147.Emscripten.clang"
  },
  "schemaVersion": "3.0.11",
  "updatedAt": "2019-07-05T17:34:49.009Z",
  "devdoc": {
    "methods": {
      "renounceOwnership()": {
        "details": "Allows the current owner to relinquish control of the contract."
      },
      "transferOwnership(address)": {
        "details": "Allows the current owner to transfer control of the contract to a newOwner.",
        "params": {
          "_newOwner": "The address to transfer ownership to."
        }
      }
    }
  },
  "userdoc": {
    "methods": {
      "renounceOwnership()": {
        "notice": "Renouncing to ownership will leave the contract without an owner. It will not be possible to call the functions with the `onlyOwner` modifier anymore."
      }
    }
  }
}